S010000052545F7461736B342E7372656328
S11300000C942A000C9466020C9447000C9447004C
S11300100C9447000C9447000C9447000C94470040
S11300200C9447000C9447000C94A1010C944700D5
S11300300C9447000C9447000C9447000C94470020
S11300400C9447000C9447000C9447000C94470010
S11300500C94470011241FBECFE5D8E0DEBFCDBF0E
S113006010E0A0E6B0E0E4E4F5E002C005900D92F3
S1130070A43AB107D9F720E0A4EAB0E001C01D9288
S1130080AD3AB207E1F70E94F1010C94A0020C947E
S11300900000A09884B3806784BB8FEF85BB08956C
S11300A0EF92FF920F931F93CF93DF93C0E6D0E0BC
S11300B060E070E0DE0141E050E095B3FA010C909D
S11300C002C0EE0FFF1F0A94E2F79A0112960C90F9
S11300D0129702C0220F331F0A94E2F72E2B292B0A
S11300E0CA0114960C90149702C0880F991F0A94A1
S11300F0E2F7822B85BB95B3888122969A0102C0D0
S1130100220F331F8A95E2F7822F8095892385BBBE
S1130110E6E6F0E0EE24E394F12C00E010E005C004
S11301200F5F1F4F8FEFE81AF80A83B320813296CE
S113013090E0022E02C0959587950A94E2F780FD1F
S11301403DC0CA0102C0880F991F2A95E2F79C019D
S113015083B390E082239323892BD1F3613071051B
S113016099F062307105E9F06115710539F50115F1
S1130170110589F10130110581F10230110579F180
S113018003301105D9F42DC00115110561F10130B9
S1130190110559F10230110551F10330110571F4C3
S11301A028C00115110539F10130110531F1023072
S11301B0110529F10330110531F523C094E0E91646
S11301C0F1040CF4ADCF6F5F7F4F6330710509F01C
S11301D074CF81E41EC081E31CC084E31AC087E3AA
S11301E018C08AE216C082E314C085E312C088E313
S11301F010C080E30EC083E30CC086E30AC089E329
S113020008C083E206C084E0E816F1040CF488CF49
S113021081E4DF91CF911F910F91FF90EF900895AA
S1130220C398000000008FEC97E00197F1F700C03D
S11302300000C39A08958AB31ABAC098C19ACF9B92
S113024004C00E941001CF99FCCF8FEF8ABBC198E4
S11302500895CF93C82F0E941B01CBBB88B38C7F1A
S113026088BB0E941001CF91089581E00E9429016A
S113027008958FE39CE90197F1F700C0000087B36C
S11302808B6087BB88B3847F88BB8FEF8ABB8FE288
S113029095E70197F1F700C000000E94350186E060
S11302A00E94290180E80E9429018FE00E9429010F
S11302B088E30E9429010895811107C0603168F420
S11302C080E8860F0E9429010895813031F460315D
S11302D020F480EC860F0E9429010895CF93C82F43
S11302E00E941B01C09ACBBBC09AC1980E94100106
S11302F0CF9108950F931F93CF93DF938C01C0E0A8
S1130300D0E015C021960E946E01C031D10521F4C0
S113031080EC0E9429010BC0CE018097029738F42B
S11303200E94350180E80E942901C0E0D0E0F80174
S113033081918F018111E6CFDF91CF911F910F91B0
S113034008951F920F920FB60F9211248F939F93CB
S11303508091A4009091A50001969093A5008093AC
S1130360A400049741F492B388E1892782BB1092D8
S1130370A5001092A4009F918F910F900FBE0F9033
S11303801F9018950E94350160E080E00E945C0196
S113039082E790E00E947A0160E081E00E945C01C3
S11303A082B3836082BB10926E0008958BE181BB9F
S11303B0929A80B7846080BF85B7826085BF8BB70F
S11303C080648BBF089583B78F7B83BF83B78860B6
S11303D083BF83B713BE89B7826089BF84EF8CBFA4
S11303E008950E9439010E9449008AE790E00E9422
S11303F07A0160E081E00E945C010E94D6010E94C3
S1130400E30178941092A7001092A60020C09923CB
S113041011F10E9450008134D1F0E091A600F091D6
S1130420A700E655FF4F80830E946E018091A600CD
S11304309091A7008230910529F41092A7001092A0
S1130440A60005C001969093A7008093A600809112
S11304506F0090916E008111DACF80E090E00895F2
S113046083B7856083BF08958091A8009091A90007
S113047001969093A9008093A8000E94350160E042
S113048080E00E945C018091A8009091A9000397EC
S11304902CF489E890E00E947A0104C089E990E094
S11304A00E947A0160E081E00E945C018091A800D2
S11304B09091A90003972CF41092A7001092A60023
S11304C0089510926E000E94300208951F920F92B8
S11304D00FB60F9211242F933F934F935F936F9313
S11304E07F938F939F93AF93BF93EF93FF93E09189
S11304F07000F09171009091AA00808198130DC052
S113050091818091AB00981308C09091AC008281D6
S1130510981303C00E94C20102C00E943402FF91DA
S1130520EF91BF91AF919F918F917F916F915F9167
S11305304F913F912F910F900FBE0F901F901895E0
S1070540F894FFCF59
S1130544040005000600000001000200030001018C
S1130554A000436F727265637400456E7465722003
S113056470617373776F72640057726F6E672C20B7
S113057452652D656E7465720057726F6E67210043
S107058431323300D9
S9030000FC
