S010000052545F7461736B332E7372656329
S11300000C944E000C946B000C946B000C946B00DD
S11300100C946B000C946B000C946B000C946B00B0
S11300200C946B000C946B000C946B000C946B00A0
S11300300C946B000C946B000C946B000C946B0090
S11300400C94F0000C946B000C946B000C946B00FB
S11300500C946B0086008000820084008700870077
S11300608700870087008700870087008700870054
S11300708700870087008700870087008700870044
S11300808700870087008700870087008700870034
S113009087008700860080008200840011241FBE30
S11300A0CFE5D8E0DEBFCDBF10E0A0E6B0E0ECE9DC
S11300B0F5E002C005900D92A836B107D9F720E00B
S11300C0A8E6B0E001C01D92AA36B207E1F70E948B
S11300D02E010C94CC020C9400008FE886B980E4C5
S11300E087B90895369A0895482F50E0FA01E154EB
S11300F0F109E432F10558F4E65DFF4F0C94C602B1
S113010091E005C092E003C093E001C090E0892F24
S11301100895E0916000F09161001082E091620026
S1130120F09163001082E0916400F0916500108208
S1130130E0916600F091670010820895CF93C82F74
S11301408830B8F56623D9F06130A9F5842F0E9470
S11301507400E82FF0E0EE0FFF1FE05AFF4F01900C
S1130160F081E02D408121E030E0C90102C0880F18
S1130170991FCA95E2F7842B808381E01DC0842FE8
S11301800E947400E82FF0E0EE0FFF1FE05AFF4FCB
S11301900190F081E02D408121E030E0C90102C0EE
S11301A0880F991FCA95E2F780958423808381E0A4
S11301B003C080E001C080E0CF910895CF93C82FA1
S11301C0862F0E947400E82FF0E0EE0FFF1FE05A24
S11301D0FF4F0190F081E02DC08381E0CF9108951D
S11301E01F920F920FB60F9211242F933F934F93A8
S11301F05F936F937F938F939F93AF93BF93EF938B
S1130200FF9364B185B170E0782B709369006093BB
S1130210680080E090E00E94D50120E030EC4FE7D8
S113022054E40E94410120E030E04FE753E40E948F
S113023063020E94A9016CBF369AFF91EF91BF91AE
S1130240AF919F918F917F916F915F914F913F916A
S11302502F910F900FBE0F901F9018950E94890048
S113026064E681E00E94DE0042E661E083E00E94F1
S11302709E0078940E946D0089E683BF0E947200FC
S1130280FFCF0CD0E6C0DED040F0D5D030F021F462
S11302905F3F19F0C7C0511110C1CAC0EBD098F329
S11302A09923C9F35523B1F3951B550BBB27AA27F3
S11302B062177307840738F09F5F5F4F220F331F65
S11302C0441FAA1FA9F333D00E2E3AF0E0E830D031
S11302D091505040E695001CCAF729D0FE2F27D034
S11302E0660F771F881FBB1F261737074807AB0702
S11302F0B0E809F0BB0B802DBF01FF2793585F4F77
S11303002AF09E3F510568F08DC0D7C05F3FECF3E3
S1130310983EDCF3869577956795B795F7959F5F3B
S1130320C9F7880F911D9695879597F90895E1E08F
S1130330660F771F881FBB1F621773078407BA07EE
S113034020F0621B730B840BBA0BEE1F88F7E09549
S1130350089598D088F09F5790F0B92F9927B751F6
S1130360A0F0D1F0660F771F881F991F1AF0BA9575
S1130370C9F712C0B13081F09FD0B1E008959CC09C
S1130380672F782F8827B85F39F0B93FCCF386956B
S113039077956795B395D9F73EF4909580957095C8
S11303A061957F4F8F4F9F4F0895E89409C097FB45
S11303B03EF490958095709561957F4F8F4F9F4F38
S11303C09923A9F0F92F96E9BB279395F69587957C
S11303D077956795B795F111F8CFFAF4BB0F11F43F
S11303E060FF1BC06F5F7F4F8F4F9F4F16C08823E6
S11303F011F096E911C0772321F09EE8872F762F1C
S113040005C0662371F096E8862F70E060E02AF05C
S11304109A95660F771F881FDAF7880F9695879548
S113042097F9089597F99F6780E870E060E0089570
S11304309FEF80EC089500240A94161617061806F8
S11304400906089500240A941216130614060506D4
S11304500895092E0394000C11F4882352F0BB0F65
S113046040F4BF2B11F460FF04C06F5F7F4F8F4FC8
S11304709F4F089557FD9058440F551F59F05F3F03
S113048071F04795880F97FB991F61F09F3F79F0B2
S113049087950895121613061406551FF2CF469534
S11304A0F1DF08C0161617061806991FF1CF8695B6
S11304B07105610508940895E894BB27662777279A
S11304C0CB0197F908950BD0C4CFB5DF28F0BADF7C
S11304D018F0952309F0A6CFABCF1124EECFCADFD5
S11304E0A0F3959FD1F3950F50E0551F629FF00143
S11304F0729FBB27F00DB11D639FAA27F00DB11D9C
S1130500AA1F649F6627B00DA11D661F829F222724
S1130510B00DA11D621F739FB00DA11D621F839FAB
S1130520A00D611D221F749F3327A00D611D231F81
S1130530849F600D211D822F762F6A2F11249F57CF
S113054050408AF0E1F088234AF0EE0FFF1FBB1FF2
S1130550661F771F881F91505040A9F79E3F510591
S113056070F060CFAACF5F3FECF3983EDCF3869542
S113057077956795B795F795E7959F5FC1F7FE2B3C
S1130580880F911D9695879597F90895EE0FFF1F93
S10F05900590F491E02D0994F894FFCF3D
S10B059C3A003700340031007D
S9030000FC
