:100000000C944E000C9445010C9463000C94630016
:100010000C9463000C94EE010C9463000C94630048
:100020000C9463000C9463000C9463000C94A7017F
:100030000C9463000C9463000C9463000C946300B4
:100040000C9463000C9463000C9463000C946300A4
:100050000C946300770071007300750078007800DD
:1000600078007800780078007800780078007800D0
:1000700078007800780078007800780078007800C0
:1000800078007800780078007800780078007800B0
:1000900078007800770071007300750011241FBE8E
:1000A000CFE5D8E0DEBFCDBF10E0A0E6B0E0E8EFDE
:1000B000F4E002C005900D92AC37B107D9F70E9469
:1000C00035020C947A020C940000482F50E0FA019B
:1000D000E154F109E432F10558F4E65DFF4F0C9468
:1000E000600291E005C092E003C093E001C090E09F
:1000F000892F0895E0916800F09169001082E091E5
:100100006A00F0916B001082E0916C00F0916D003C
:100110001082E0916E00F0916F00108208951F939D
:10012000CF93DF93182FEB018830C0F4842F0E9407
:100130006500E82FF0E0EE0FFF1FE05AFF4F01903F
:10014000F081E02D208130E0C90102C095958795AE
:100150001A95E2F78170888381E001C080E0DF9129
:10016000CF911F910895CF93C82F8830B8F566239B
:10017000D9F06130A9F5842F0E946500E82FF0E0E6
:10018000EE0FFF1FE059FF4F0190F081E02D4081FD
:1001900021E030E0C90102C0880F991FCA95E2F73B
:1001A000842B808381E01DC0842F0E946500E82F8E
:1001B000F0E0EE0FFF1FE059FF4F0190F081E02DBE
:1001C000408121E030E0C90102C0880F991FCA9523
:1001D000E2F780958423808381E003C080E001C042
:1001E00080E0CF910895CF93C82F8830B8F566236B
:1001F000D9F06130A9F5842F0E946500E82FF0E066
:10020000EE0FFF1FE859FF4F0190F081E02D408174
:1002100021E030E0C90102C0880F991FCA95E2F7BA
:10022000842B808381E01DC0842F0E946500E82F0D
:10023000F0E0EE0FFF1FE859FF4F0190F081E02D35
:10024000408121E030E0C90102C0880F991FCA95A2
:10025000E2F780958423808381E003C080E001C0C1
:1002600080E0CF910895CF93C82F862F0E9465001C
:10027000E82FF0E0EE0FFF1FE859FF4F0190F081EB
:10028000E02DC08381E0CF9108951F920F920FB6A9
:100290000F921124DF92EF92FF920F931F932F93EF
:1002A0003F934F935F936F937F938F939F93AF93FE
:1002B000BF93CF93DF93EF93FF93C8E7D0E0F12C88
:1002C00006E010E0EE24E3946894DD24D2F88881FF
:1002D00090E00196B8010E944C028993833030F47B
:1002E00041E660E08F2D0E94B30015C0833031F4E9
:1002F00041E66E2D8F2D0E94B3000DC0853029F48C
:10030000D3BE89B7816089BF06C0843021F4E5BCC3
:1003100089B7806489BFF39483E0F812D8CFFF9146
:10032000EF91DF91CF91BF91AF919F918F917F918D
:100330006F915F914F913F912F911F910F91FF907E
:10034000EF90DF900F900FBE0F901F9018951F92A7
:100350000F920FB60F9211241F932F933F934F9339
:100360005F936F937F938F939F93AF93BF93CF933D
:10037000DF93EF93FF9380917800853061F0809157
:100380007900853031F080917A00853099F412E05F
:1003900003C011E001C010E041E6C0E0D0E0BE01C2
:1003A000812F0E948F00688181E0682741E6812FBC
:1003B0000E94B300FF91EF91DF91CF91BF91AF9178
:1003C0009F918F917F916F915F914F913F912F916D
:1003D0001F910F900FBE0F901F9018951F920F92B4
:1003E0000FB60F9211241F932F933F934F935F9358
:1003F0006F937F938F939F93AF93BF93CF93DF932D
:10040000EF93FF9380917800843061F080917900C0
:10041000843031F080917A00843099F412E003C086
:1004200011E001C010E041E6C0E0D0E0BE01812F44
:100430000E948F00688181E0682741E6812F0E9439
:10044000B300FF91EF91DF91CF91BF91AF919F9159
:100450008F917F916F915F914F913F912F911F915C
:100460000F900FBE0F901F9018950E947A0061E6C2
:1004700087E00E94330144E660E082E00E94F300DE
:100480008FB780688FBF85B7836085BF8BB7806467
:100490008BBF13BE15BCFFCF97FB072E16F400943D
:1004A00007D077FD09D00E94660207FC05D03EF414
:1004B000909581959F4F0895709561957F4F089510
:1004C000EE0FFF1F0590F491E02D0994AA1BBB1BB2
:1004D00051E107C0AA1FBB1FA617B70710F0A61B44
:1004E000B70B881F991F5A95A9F780959095BC0165
:0804F000CD010895F894FFCF3F
:1004F80039003600330030003A003700340031004C
:0C0508003B00380035003200020100000A
:00000001FF
